:020000040800F2
:1000000000A000209D0E0008DD0F0008DF0F000893
:10001000E10F0008E30F0008E50F000800000000F2
:10002000000000000000000000000000E70F0008D2
:10003000E90F000800000000EB0F0008ED0F0008BA
:10004000E10E0008E10E0008E10E0008E10E0008D4
:10005000E10E0008E10E0008E10E0008E10E0008C4
:10006000E10E0008E10E0008E10E0008E10E0008B4
:10007000E10E0008E10E0008E10E0008E10E0008A4
:10008000E10E0008E10E0008E10E0008E10E000894
:10009000E10E0008E10E0008E10E0008E10E000884
:1000A000E10E0008E10E0008E10E0008E10E000874
:1000B000E10E0008E10E0008E10E0008E10E000864
:1000C000E10E0008E10E0008E10E0008E10E000854
:1000D000E10E0008E10E0008E10E0008E10E000844
:1000E000E10E0008E10E0008E10E0008E10E000834
:1000F000E10E0008E10E0008E10E0008E10E000824
:10010000000000000000000000000000E10E0008F8
:10011000E10E0008E10E0008E10E0008E10E000803
:10012000E10E0008E10E0008E10E0008E10E0008F3
:10013000E10E0008E10E00080000000000000000D1
:10014000E10E0008E10E0008E10E000800000000CA
:10015000000000000000000000000000000000009F
:100160000000000000000000E10E0008E10E0008A1
:10017000E10E000800000000000000000000000088
:0801800000000000E10E000880
:1001880030B50B4D83B00446012155F8200000F02E
:100198004DFD05EB4405074A074B52F824002A8C0D
:1001A8006946CDE9002300F0CFF903B030BD00BFA8
:1001B800D01000080000002001030001044B054A8C
:1001C80003EB400352F820201B8C9361704700BF5B
:1001D800D010000800000020044B054A03EB400340
:1001E80052F820201B8C1385704700BFD0100008E0
:1001F80000000020054A064B52F8202003EB40037C
:10020800918A1B8C4B409BB2938270470000002060
:10021800D010000870B5054686B00C464FF4003083
:10022800012100F003FD0121084600F00BFD1348F1
:1002380000EB850000260123006A8DF80C6002A9F6
:100248008DF80F60029300F07FF9012C01D006B001
:1002580070BD3146304600F0DFFD4FF4006304A85E
:10026800ADF8143004968DF8164000F031F8044BC0
:10027800019301A800F002FA06B070BD000000204A
:10028800060F0F0108B5044B03EB80030121186A20
:1002980000F0B6F908BD00BF000000200B4B10B4F9
:1002A80000224FF0FC546FF0FC511C600C205A6087
:1002B8009A60DA601A615961032118625DF8044B8B
:1002C8005A629A62DA621A635963704700040140FD
:1002D80070B40368847903F01F02012101FA02F265
:1002E8005B09D243002C4ED003F1007303F502637F
:1002F8005B011C6822401A600368334C23F01F0519
:1003080003F01F032A5901FA03F322EA03032B51CE
:100318000279036802F1804223F01F0402F5823259
:1003280003F01F03A55801FA03F32B43A3500368F6
:10033800264C23F01F0503F01F032A5901FA03F383
:1003480022EA03032B510368214D23F01F0C03F00D
:100358001F035CF8052001FA03F322EA03034CF8B3
:1003680005304379102B19D0026803F1804322F03D
:100378001F0003F5823302F01F029140C258114357
:1003880070BCC1507047017901F180415B0101F5F2
:10039800823170BCC8580240CA507047036823F0C5
:1003A8001F0203F01F03165901FA03F333431351D5
:1003B800036823F01F0203F01F0301FA03F35159E6
:1003C8000B43535170BC70470404014008040140BA
:1003D8000C04014000234FF4805203608280837133
:1003E800704700BF20F01F01054A10B400F01F003D
:1003F8008C580123834023438B505DF8044B70478E
:1004080010040140064B20F01F0200F01F00D258D4
:1004180001238340134214BF01200020704700BF0E
:100428001404014020F01F01034A00F01F000123BB
:1004380083408B50704700BF1404014020F01F0315
:1004480003F1804303F5823300F01F0019685B69EC
:100458000122824012EA030003D0114214BF012096
:100468000020704720F01F01034A00F01F000123FD
:1004780083408B50704700BF14040140B0F1904F87
:1004880008B51BD02B4B984224D02B4B98422DD02B
:100498002A4B984206D02A4B984233D0294B98428F
:1004A8003CD008BD01214FF4801000F0E3FBBDE80B
:1004B800084000214FF4801000F0DCBB01214FF40C
:1004C800003000F0D7FBBDE8084000214FF40030B1
:1004D80000F0D0BB01214FF4802000F0CBFBBDE839
:1004E800084000214FF4802000F0C4BB01214FF4E4
:1004F800002000F0BFFBBDE8084000214FF40020B9
:1005080000F0B8BB01214FF4001000F0B3FBBDE8C8
:10051800084000214FF4001000F0ACBB01214FF45B
:10052800800000F0A7FBBDE8084000214FF48000E0
:1005380000F0A0BB0004004800080048000C004878
:10054800001000480014004800222DE9F047134627
:100558000D684FF0010E032604E00133102B02F161
:1005680002023BD00EFA03F939EA0504F5D10C79F9
:1005780004FA02F7013C06FA02F8012C6FEA080CAB
:1005880017D8846804EA0C0484604C79D0F808A071
:10059800944044EA0A0484608488A4B224EA0904E2
:1005A80084808C79B0F804909C4044EA0904A4B291
:1005B8008480046804EA0C04046004683C43046012
:1005C800C46824EA0804C460CC79C768944001333D
:1005D8003C43102BC46002F10202C3D1BDE8F0878E
:1005E8004FF6FF724FF48073C0E90023704700BFD5
:1005F80041F48033C361C161C361C369C369704792
:10060800038A194214BF012000207047008A80B273
:10061800704700BF838A194214BF01200020704729
:10062800808A80B2704700BF81617047018570473A
:100638000AB1816170470185704700BF81827047A8
:10064800CB0800EB830001F00701036A89004FF033
:100658000F0C0CFA01FC23EA0C030362036A8A40BC
:100668001A430262704700BF034B40F0BF6040F47A
:100678000030D860704700BF00ED00E010B5027888
:10068800C378012402F01F014FEA521C8C40C3B109
:100698000F4B90F801E0D9688378C943C1F3022170
:1006A8000F20C840C1F104010EFA01F103400B43C9
:1006B80008491B010A44DBB282F8003341F82C4098
:1006C80010BD044B0CF1200C43F82C4010BD00BFAA
:1006D80000ED00E000E100E021F06041024B21F074
:1006E8007F0101439960704700ED00E0044A1369F7
:1006F80011B103431361704723EA00031361704784
:1007080000ED00E04FF0E022042813690CBF43F02D
:10071800040323F004031361704700BF124B134A0C
:100728001868134940F0010010B418605C68224052
:100738005A601A685DF8044B22F0847222F4803201
:100748001A601A6822F480221A605A6822F4FE029B
:100758005A60DA6A6FF30D02DA621A6B00201140F0
:1007680019639860704700BF0010024000C0FFF88E
:10077800CCFC000F024B00229A709870704700BFA3
:100788000010024082B000230A4A0193136813F450
:10079800003F019B03F101030193019B05D0054B29
:1007A8001868C0F3404002B07047B3F5A06FEDD1B0
:1007B800F5E700BF00100240034A136823F0F8036E
:1007C80043EAC0031360704700100240014B1860F1
:1007D800704700BF00004242064B1A6A22F001022D
:1007E8001A621A6A22F004021A621A6A02431A6228
:1007F800704700BF00100240044B1A6A22F018022A
:100808001A621A6A02431A62704700BF0010024057
:10081800014BC3F88004704700004242044A536801
:1008280023F47413536053680B43034353607047B6
:1008380000100240014B1866704700BF000042429A
:10084800034AD36A23F00F030343D362704700BF00
:1008580000100240014BD864704700BF00004242BC
:10086800014BD871704700BF00100240034A53681B
:1008780023F0030303435360704700BF0010024096
:10088800024B586800F00C00704700BF001002408F
:10089800034A536823F0F00303435360704700BFD3
:1008A80000100240034A536823F4E0630343536093
:1008B800704700BF00100240034A536823F4605396
:1008C80043EAC0035360704700100240944A5368DB
:1008D80003F00C03082BF0B57ED0924A4FF0000EBF
:1008E8008F4D02606968904BC1F303115E5C22FA78
:1008F80006F141606C68C4F30224F6B21C5D21FA6B
:1009080004F484606F68C7F3C227DF5DF940C160F3
:10091800ED6AC5F3041C03EB4C0CFFB2BCF810C025
:100928001CF0100F1FFA8CF50CBF1546BEFBF5F531
:1009380005617B4DED6AC5F3442503EB45031D8A2C
:10094800ABB2ED0658BF1346754D48BFBEFBF3F377
:100958004361D5F830C0734B1CF0100F0CBF9C4698
:100968009446C0F818C0D5F830C01CF0200F18BF46
:100978001346C3612B6BDB0524D5964539D001623C
:100988002B6B0B464362664B1D6BAD0740F098809E
:100998008162634B196B11F4403F7CD1C462604B98
:1009A800196B11F4402F61D104635D4B196B11F47D
:1009B800401F46D144635A4B196B11F4400F2BD199
:1009C8008463F0BD01622B6B9B05DAD59645D8D1BF
:1009D800BE42D6D15300D5E753685168C3F3834E5E
:1009E800CE030EF1020E0CD4504B03FB0EFE7246E2
:1009F80076E7BE42C3D1530003622D6BAD05C0D567
:100A0800C0E7D36A474A03F00F030133B2FBF3F39D
:100A18000EFB03FE724663E7196B01F44001B1F562
:100A2800800F61D01A6B02F44002B2F5000F6BD050
:100A38001B6B03F44003B3F5400F04BF394B8363CA
:100A4800F0BD196B01F44011B1F5801F50D0196B3E
:100A580001F44011B1F5001F5ED01B6B03F4401385
:100A6800B3F5401F04BF2F4B4363A4E7196B01F490
:100A78004021B1F5802F39D0196B01F44021B1F52F
:100A8800002F45D01B6B03F44023B3F5402F04BF60
:100A9800244B036389E7196B01F44031B1F5803FBA
:100AA80020D0196B01F44031B1F5003F28D01B6B01
:100AB80003F44033B3F5403F04BF1A4BC3626EE7FB
:100AC800196B01F00301012914D0196B01F003011E
:100AD800022911D01B6B03F00303032B04BF114B36
:100AE800836256E7C2625AE78263F0BD02635CE73D
:100AF800426360E782624CE74FF40043836248E751
:100B08004FF40043C3624AE74FF400438363F0BDE8
:100B18004FF40043036348E74FF4004343634AE755
:100B28000010024000127A001811000800093D0068
:100B3800064A030FD36A14BF23F4785323F4F873D7
:100B4800D362024AD36A0343D3627047001002405B
:100B5800064A030F136B14BF23F0200323F010037E
:100B68001363024A136B0343136370470010024078
:100B7800064A030F136B14BF23F4007323F4807326
:100B88001363024A136B0343136370470010024058
:100B9800030F013B042B09D8DFE803F00313191FE7
:100BA8000D00114A136B23F0030313630E4A136BF2
:100BB8000343136370470C4A136B23F44003136316
:100BC800F4E7094A136B23F440331363EEE7064A4C
:100BD800136B23F440231363E8E7034A136B23F4EE
:100BE80040131363E2E700BF00100240014BC3F853
:100BF800D800704700004242024A136A0343136256
:100C0800704700BF00100240014BC3F8DC0070477A
:100C180000004242014BC3F83C04704700004242C6
:100C2800014BC3F84004704700004242044A53692C
:100C380011B103435361704723EA000353617047BE
:100C480000100240044A936911B10343936170474D
:100C580023EA00039361704700100240044AD369F5
:100C680011B10343D361704723EA0003D36170478E
:100C780000100240044A936A11B10343936270471B
:100C880023EA00039362704700100240044AD368C5
:100C980011B10343D360704723EA0003D360704760
:100CA80000100240044A136911B1034313617047ED
:100CB80023EA00031361704700100240044A537A84
:100CC80011B103435372704723EA0003537270470C
:100CD80000100240430908D10F4B1B6800F01F00A9
:100CE80023FA00F000F001007047012B0BD0042B11
:100CF800094B0CBF5B685B6A00F01F0023FA00F029
:100D080000F001007047044B1B6A00F01F0023FA33
:100D180000F000F00100704700100240024A536AD8
:100D280043F080735362704700100240034B9B6886
:100D3800184214BF01200020704700BF0010024075
:100D4800014B9872704700BF00100240084B1968A9
:100D580001F0030119601968002241F0F841196097
:100D68005A609A60DA601A615A619A61704700BFE6
:100D780000000140034A136823F003030343136090
:100D8800704700BF00000140044A136811B10343D3
:100D98001360704723EA00031360704700000140A6
:100DA80021B1054B1A68104318607047024A13684E
:100DB80023EA00031360704700000140044B1A68DF
:100DC80022F440021A601A6802431A60704700BF92
:100DD80000000140014B5861704700BF00002042ED
:100DE80021B1054B1A68104318607047024A13680E
:100DF80023EA0003136070470000014021B1054B4E
:100E08001A68104318607047024A136823EA0003FF
:100E1800136070470000014001F0FC0303F18043B8
:100E280003F5803301F003019A6889004FF00F0C35
:100E38000CFA01FC22EA0C029A609A688840104376
:100E480098607047024A936903439361704700BFF3
:100E580000000140024B0122C3F81023704700BF75
:100E680000002042024A536803435360704700BFA2
:100E780000000140024B9869C0F30020704700BF92
:100E880000000140024B9A6910439861704700BF07
:100E980000000140002103E00A4B5B584350043135
:100EA80009480A4B42189A42F6D3094A02E000233D
:100EB80042F8043B074B9A42F9D300F00FF800F0D0
:100EC8009FF870475C1100080000002028000020EF
:100ED800280000202C000020FEE70000384AD2F845
:100EE800883043F47003C2F88830364B1A6842F0F1
:100EF80001021A605968344A0A405A601A6822F096
:100F0800847222F480321A601A6822F480221A60ED
:100F18005A6822F4FE025A60DA6A22F00F02DA6294
:100F2800196B2A4A82B00A401A6300229A6000921A
:100F380001921A6842F4A0221A601A6802F4003278
:100F48000192009A01320092019A1AB9009AB2F5F8
:100F5800A06FF2D11A6812F4003218BF0122019270
:100F6800019A012A26D11A4A122111605A685A6038
:100F78005A685A605A6842F480625A605A6822F481
:100F88007C125A605A6842F4E8125A601A6842F0B1
:100F980080721A601A689201FCD55A6822F003021E
:100FA8005A605A6842F002025A605A6802F00C020B
:100FB800082AFAD1024B4FF000629A6002B07047DB
:100FC80000ED00E0001002400CC07FF8CCFC00FFF0
:100FD800002002407047FEE7FEE7FEE7FEE77047A5
:100FE8007047704700F066B882B0044B0190019AD0
:100FF8001A601A68002AFCD102B070472800002045
:1010080008B50020FFF7BCF80120FFF7B9F8022067
:10101800FFF7B6F80320FFF7B3F80420FFF7B0F89E
:101028000520FFF7ADF80620FFF7AAF80720FFF71D
:10103800A7F80020FFF7C2F80420FFF7BFF8032045
:10104800FFF7BCF80720FFF7B9F8184B4FF47A728E
:101058001B68B3FBF2F34FF0E022013B5361144BE2
:10106800F02183F8231000239361072313610020E4
:10107800FFF7C0F80420FFF7BDF80320FFF7BAF820
:101088000720FFF7B7F86420FFF7AEFF0120FFF74E
:10109800B1F80220FFF7AEF80620FFF7ABF80520FD
:1010A800FFF7A8F89620FFF79FFFE0E7240000204D
:1010B80000ED00E0034B1A6812B11A68013A1A6091
:1010C800704700BF2800002000002000000020001A
:1010D8000000200000002000000020000000200088
:1010E8000000200000002000000200010004008031
:1010F800000800400010002006000000000000006A
:1011080000000000000000000000020001000000D4
:101118000000000001020304010203040607080995
:101128000000010002000400060008000A000C008C
:10113800100020004000800000010000F8B500BF4A
:10114800F8BC08BC9E467047F8B500BFF8BC08BCA0
:041158009E467047F8
:10115C000010004800100048001000480010004823
:10116C000010004800100048001000480010004813
:08117C000000004800A24A0433
:0400000508000E9D44
:00000001FF
